:060000000A128A110C280F
:10000800FE00030EF0000A08F1000A128A11BF2C44
:100018000A128A110F280A128A11F9270A128A115C
:10002800C1000A128A11FA270A128A11C2000A129A
:100038008A11FB270A128A11FB00B201B301B4012D
:10004800B501B601B701B801B901BA01BB01BC01DC
:10005800BD01BE01BF01C00183010A128A11AC298A
:1000680083120313AB00103027062804031D3D2814
:100078003E285E28BD01B601B701BC01BB01BE0127
:10008800FF30AB008030F60072300A128A1526273E
:100098000A128A11C030F600BF300A128A152627C4
:1000A8000A128A11D030F60023300A128A15262740
:1000B8000A128A112A30831203132B0603196528A2
:1000C8006628882823302B0603196B286C28882873
:1000D8002B0A03197028712888280130FF007F082F
:1000E800BD0704303D0203187A287B2823290A30EB
:1000F800F2003B080A128A11E4270A128A118312B5
:1001080003132B07BB0023292A302B06031D8D2838
:100118008E289128BB01BD01232923302B06031DFE
:100128009628972823290A128A1580260A128A11E6
:100138008030F60064300A128A1526270A128A11BE
:100148009030F60098300A128A1526270A128A116A
:10015800831203131215B430C00014299B30A60073
:100168006430F2000030F3004008A900AA01290811
:10017800F4002A08F5000A128A1158240A128A1172
:100188007208303E0A128A1591260A128A119C308A
:1001980083120313A6000A30A0000030A1000A3021
:1001A800F2000030F3004008A900AA012908F40071
:1001B8002A08F5000A128A1158240A128A117308AB
:1001C80083120313A3007208A2000A128A15A52736
:1001D8000A128A11831203132008303E0A128A1564
:1001E80091260A128A119D3083120313A6000A3041
:1001F800A0000030A1004008A900AA012908A20017
:100208002A08A3000A128A15A5270A128A1183123E
:1002180003132008303E0A128A1591260A128A1101
:10022800831203134008031D1A291B29B22840080A
:10023800031D1F2920292329BE01BE0A12110130DE
:10024800B6070318B70A0030B70710303606370468
:10025800031D2F2930299C29B601B7013C08031931
:1002680036293829013039290030BC00C830A600A9
:100278006430F2000030F3003B08A900AA01290805
:10028800F4002A08F5000A128A1158240A128A1161
:100298007208303E0A128A1591260A128A11C9304C
:1002A80083120313A6000A30A0000030A1000A3010
:1002B800F2000030F3003B08A900AA012908F40065
:1002C8002A08F5000A128A1158240A128A1173089A
:1002D80083120313A3007208A2000A128A15A52725
:1002E8000A128A11831203132008303E0A128A1553
:1002F80091260A128A11CA3083120313A6000A3003
:10030800A0000030A1003B08A900AA012908A2000A
:100318002A08A3000A128A15A5270A128A1183122D
:1003280003132008303E0A128A1591260A128A11F0
:10033800831203133C080319A229A329AB29C83047
:10034800F60041300A128A1526270A128A11080077
:100358000A128A15A4260A128A1101300A128A156D
:1003680003270A128A1183120313B10002304106CF
:100378004204031DC029C129252A3103031DC529AB
:10038800C629EF290330C1000030C2001030AF0089
:100398000030B0000A128A1580260A128A11C0306D
:1003A800F60044300A128A1526270A128A114D309F
:1003B80083120313AE001930AD004F30AC00AC0B04
:1003C800E329AD0BE329AE0BE3290A128A1580262F
:1003D8000A128A11D82A02303106031DF429F52998
:1003E800FE290430C1000030C2001030AF000030D8
:1003F800B000E92903303106031D032A042A0D2A17
:100408000530C1000030C2001030AF000030B0002D
:10041800E92904303106031D122A132A242A1E3022
:10042800C000BF01071512150A128A1580260A1284
:100438008A11073083120313C1000030C200D82A82
:10044800D82A073041064204031D2B2A2C2AD82A11
:1004580004303106031D312A322A432A40081E3E41
:10046800C0003C304002031C3A2A3B2AD82A0130FB
:10047800FF007F08BF074008C43EC000D82A0530E7
:100488003106031D482A492A4E2A0930C100003086
:10049800C200D82A06303106031D532A542A592A85
:1004A8000A30C1000030C200E9290930410642047F
:1004B800031D5F2A602AD82A04303106031D652AE5
:1004C800662A242A071512151D2A0A128A11792765
:1004D8000A128A11023083120313C1000030C200CD
:1004E8000A128A1580260A128A11F92A0A128A150E
:1004F800E2260A128A11F92A3008A8002F08A70054
:1005080031080A128A1103230A128A11F92A3008BB
:10051800A8002F08A70031080A128A1103230A121B
:100528008A11F92A3E08031D9A2A9B2AB82A3008FC
:10053800A8002F08A70031080A128A1134200A12CD
:100548008A11831203133E03031DAB2AAC2AF92A2E
:100558000A128A1580260A128A1110308312031390
:10056800AF000030B000B1293E03031DBC2ABD2AEC
:10057800F92A3008A8002F08A70031080A128A11A2
:1005880003230A128A11F92A0A128A11EB250A1280
:100598008A11F92A07111211F92A071112110230CA
:1005A800C1000030C200F92A831203134208003A3E
:1005B8000319DF2AF92A4108013A0319692A033A7B
:1005C80003197A2A013A03198B2A073A0319802A50
:1005D800013A0319962A023A0319C82A0E3A03194E
:1005E800CE2A033A0319D12AF92A0F3083120313AA
:1005F800AF000030B000B1290A128A110C2883120A
:100608000313AB00103027062804031D0C2B0D2BF9
:100618002E2BBA01C001BF01B901B401B501B8015F
:10062800FF30AB008030F60012300A128A152627F8
:100638000A128A11C030F600DF300A128A152627FE
:100648000A128A11D030F60023300A128A1526279A
:100658000A128A112A30831203132B060319352B29
:10066800362B742B23302B0603193B2B3C2B742B76
:100678002B0A0319402B412B742B0130FF007F08F4
:10068800BA0703303A0203184A2B4B2B592B0A306E
:10069800F20040080A128A11E4270A128A1183120A
:1006A80003132B07C000B9019E2B03303A02031C29
:1006B8005E2B5F2B9E2B05303A020318642B652BAB
:1006C8009E2B0A30F2003F080A128A11E4270A1208
:1006D8008A11831203132B07BF00B901B90A9E2B95
:1006E8002A302B06031D792B7A2B8B2B3908031DF7
:1006F8007E2B7F2B822BC001BA019E2B3903031D51
:10070800862B872B9E2BBF010230BA009E2B2330ED
:100718002B06031D902B912B9E2B0A128A158026DF
:100728000A128A11073083120313C1000030C20075
:10073800071512150130B4070318B50A0030B507BC
:10074800103034063504031DAA2BAB2B2D2CB40115
:10075800B50138080319B12BB32B0130B42B003085
:10076800B800C630A6000A30F2000030F3003F0897
:10077800A900AA012908F4002A08F5000A128A111A
:1007880058240A128A117208303E0A128A159126D4
:100798000A128A11C73083120313A6000A30A00078
:1007A8000030A1003F08A900AA012908A2002A08D0
:1007B800A3000A128A15A5270A128A1183120313A5
:1007C8002008303E0A128A1591260A128A11C8306A
:1007D80083120313A6003A300A128A1591260A12C8
:1007E8008A11C93083120313A6000A30F2000030C0
:1007F800F3004008A900AA012908F4002A08F50016
:100808000A128A1158240A128A117208303E0A12F2
:100818008A1591260A128A11CA3083120313A60078
:100828000A30A0000030A1004008A900AA01290848
:10083800A2002A08A3000A128A15A5270A128A11FB
:10084800831203132008303E0A128A1591260A12D1
:100858008A118312031338080319332C342C572CAC
:10086800472CC930F60041300A128A1526270A1289
:100878008A11572CC630F60041300A128A152627ED
:100888000A128A11572C3908A900AA012A08003A25
:1008980003194F2C572C2908003A0319352C013A13
:1008A80003193E2C572C0800F701F31F5C2C5D2C14
:1008B800642CF209F309F20A0319F30AF701F70A9B
:1008C800F51F672C682C712CF409F509F40A031933
:1008D800F50A0130FF007F08F706F801F9017208F0
:1008E80073040319782C792CB02CF601F60A872C9E
:1008F80001300310F20DF30DFF3E031D7D2C013076
:10090800FF007F08F607F31F8A2C8B2C7C2C013004
:100918000310F80DF90DFF3E031D8C2C73087502AA
:10092800031D982C72087402031C9B2C9C2CA32C6E
:100938007208F4027308031CF503F50278140130F9
:100948000310F30CF20CFF3E031DA42C0130F60239
:10095800031DAF2CB02C8B2C77080319B42CB52CA5
:10096800BA2CF809F909F80A0319F90A7908F30001
:100978007808F2000800831203138C1CC42CC52CC1
:10098800ED2C0130B2070318B30A0030B307E23088
:100998003206043003193306031DD32CD42CEC2C57
:1009A800B201B30140080319DA2CDB2CDE2C01302C
:1009B800C002EC2C4008031DE22CE32CEC2C3F0871
:1009C8000319E72CE82CEC2C0130BF023B30C000A7
:1009D8008C1071088A00700E8300FE0E7E0E0900CE
:1009E800831603138801091189100A128A154E27E4
:0609F8000A128A1108003A
:100A000005308A000408840A8207003420344D34FB
:100A10006934633472346F347734613476346534D6
:100A200020344F34763465346E34203400345334FB
:100A3000453454342034543449344D34453420340E
:100A400028344D344D343A3453345334293400343B
:100A50002A343A3443344C3445344134523420340B
:100A6000203423343A3445344E34543445345234EB
:100A700000342034203450346F3477346534723489
:100A800069346E34673420344F344E34203420348B
:100A90000034203450346F34773465347234203469
:100AA0003D34203439343034303457342034203419
:100AB0000034203434342E3453347434613472347A
:100AC00074342F3452346534733475346D34653472
:100AD000003420345034723465342D344834653455
:100AE0006134743469346E346734203400345334E0
:100AF000453454342034543445344D34503428343F
:100B00006F3443342934003433342E3443346F3457
:100B10006E34763465346334743469346F346E34CF
:100B200000342034543469346D3465342034553401
:100B300070342034213421340034543469346D3419
:100B400065342034523465344D342E343D34003411
:100B5000203435342E345034613475347334653474
:100B6000203400342034543449344D344534203456
:100B70003D3420340034203436342E34533474342D
:100B80006F34703420340034543445344D34503490
:100B900020343D342034003432342E34473472341F
:100BA00069346C346C34003431342E344D3469344F
:100BB000633472346F34003434342E345334743428
:100BC0006134723474340034543449344D3445340F
:100BD0002D34203400348030F600AD300A128A15EE
:100BE00026270A128A11893083120313A6000A30BD
:100BF000F2000030F3003F08A700A8012708F40026
:100C00002808F5000A128A1158240A128A1172085B
:100C1000303E0A128A1591260A128A118A308312EE
:100C20000313A6000A30A0000030A1003F08A7006F
:100C3000A8012708A2002808A3000A128A15A527E0
:100C40000A128A11831203132008303E0A128A15F1
:100C500091260A128A118B3083120313A6003A30B0
:100C60000A128A1591260A128A118C3083120313F4
:100C7000A6000A30F2000030F3004008A700A801E7
:100C80002708F4002808F5000A128A1158240A12CD
:100C90008A117208303E0A128A1591260A128A11A8
:100CA0008D3083120313A6000A30A0000030A1008B
:100CB0004008A700A8012708A2002808A3000A12DC
:100CC0008A15A5270A128A11831203132008303EC1
:100CD0000A128A1591260A128A11C030F600543081
:100CE0000A128A1526270A128A119030F600A330BC
:100CF0000A128A1526270A128A11D030F600B63059
:100D00000A128A1526270A128A1183120313400831
:100D1000031D8B2E8C2EBD2E3F08031D902E912E71
:100D2000BD2E0A128A1580260A128A11C030F600DA
:100D30008C300A128A1526270A128A11831203138D
:100D400087144D3083120313A9001930A8004F30C7
:100D5000A700A70BA92EA80BA92EA90BA92E0A1232
:100D60008A1580260A128A1183120313871007112D
:100D700012110230C1000030C200080083120313B8
:100D800088110815881408146430F2000030F3004C
:100D9000FF30F2070318F30AFF30F307720A031D4E
:100DA000D52E730A031DD52ED62EC82E83120313FB
:100DB0000618DB2EDC2EDE2E0130782F8618E12E71
:100DC000E22EE42E0230782F0619E72EE82EEA2EC6
:100DD0000330782F88150811881408146430F20045
:100DE0000030F300FF30F2070318F30AFF30F30777
:100DF0007308803AFF0080307F02031D012F01300D
:100E000072020318042F052FF22E83120313061803
:100E10000A2F0B2F0D2F0430782F8618102F112F2B
:100E2000132F0530782F0619162F172F192F06307C
:100E3000782F88150815881008146430F2000030E7
:100E4000F300FF30F2070318F30AFF30F3077308CB
:100E5000803AFF0080307F02031D302F0130720284
:100E60000318332F342F212F831203130618392F21
:100E70003A2F3C2F0730782F86183F2F402F422FD4
:100E80000830782F0619452F462F482F0930782F24
:100E900088150815881408106430F2000030F3003B
:100EA000FF30F2070318F30AFF30F3077308803AA4
:100EB000FF0080307F02031D5F2F01307202031894
:100EC000622F632F502F831203130618682F692F88
:100ED0006B2F2A30782F86186E2F6F2F712F0030CE
:100EE000782F0619742F752F772F2330782FFF3026
:100EF000080083120313AA012A08803EA600FF30CF
:100F00000A128A1591260A128A11033083120313DA
:100F1000A9008A30A8005530A700A70B8D2FA80B79
:100F20008D2FA90B8D2F0130FF007F088312031333
:100F3000AA0710302A02031C9E2F9F2F7C2FC0303F
:100F4000F60034300A128A1526270A128A119030C8
:100F5000F60001300A128A1526270A128A11831216
:100F60000313AA012A08D03EA600FF300A128A15F0
:100F700091260A128A11033083120313A9008A30C2
:100F8000A8005530A700A70BC32FA80BC32FA90B90
:100F9000C32F0130FF007F0883120313AA0710300C
:100FA0002A02031CD42FD52FB22F4D3083120313E6
:100FB000A9001930A8004F30A700A70BDD2FA80B00
:100FC000DD2FA90BDD2F0800F400F301741CE92FBD
:100FD000EA2FEE2F7208FF007F08F3070310F20DCF
:100FE0000310F40C7408031DF62FF72FE62F730877
:080FF000080001340034013453
:101CC6008312031312149214FA308316031392002C
:101CD6008C148312031312110800831603130608CB
:101CE600073886000808F039880081138312031329
:101CF60088150815881408140800F20101300A1224
:101D06008A15C2260A128A150430F7003D30F600FD
:101D1600F60B8B2EF70B8B2E902E0800FA00F20195
:101D26008312031326080A128A15C2260A128A1576
:101D3600F201F20A7A080A128A15C2260A128A15CE
:101D460008000A128A11F4240A128A150A128A1540
:101D560070260A128A1583160313071183120313BA
:101D660007118316031387108312031387100A12B1
:101D76008A1563260A128A150B178B170800F500B9
:101D86007218C62ECA2E831203130915CD2E83127E
:101D960003130911750888008914A630F300F30BA4
:101DA600D22E00008312031389101B30F4009E30DC
:101DB600F300F30BDC2EF40BDC2E00000800803061
:101DC600F600CF300A128A1526270A128A15C03065
:101DD600F600C7300A128A1526270A128A1590308D
:101DE600F6007F300A128A1526270A128A15D03085
:101DF600F600D7300A128A1526270A128A15080015
:101E0600F4000A128A11BE260A128A15F500740811
:101E1600031D0E2F0F2F112F7508252F750A031975
:101E2600152F162F1D2F7B0803191A2F1B2F1D2F59
:101E3600FB010F2F750A031D212F222F242FFB01D3
:101E4600FB0AFF300800F700F20176080A128A152D
:101E5600C2260A128A15412FF201F20A7708840077
:101E66000A128A1100250A128A150A128A15C22632
:101E76000A128A150130FF007F08F70777088400E9
:101E86000A128A1100250A128A15003A031D4C2FE0
:101E96004D2F2F2F0800C330F700CD30F600F60B7C
:101EA600522FF70B522FF20133300A128A15C2262F
:101EB6000A128A151B30F7009E30F600F60B612FCA
:101EC600F70B612F0000F20133300A128A15C22681
:101ED6000A128A15A630F600F60B6F2F0000F201E3
:101EE60033300A128A15C2260A128A157A2F7B2FD8
:101EF6000000F20102300A128A15C2260A128A1559
:101F0600A630F600F60B852F0000F20101300A120A
:101F16008A15C2260A128A150430F7003D30F600EB
:101F2600F60B932FF70B932F982FF2010C300A1212
:101F36008A15C2260A128A15A630F600F60BA12FBC
:101F46000000080083120313A501A31FAB2FAC2FBB
:101F5600B32FA209A309A20A0319A30AA501A50A78
:101F6600A11FB62FB72FBC2FA009A109A00A0319DC
:101F7600A10A200821040319C12FC22FF12FA401A1
:101F8600A40AD02F01300310A00DA10DFF3E031DA2
:101F9600C62F0130FF007F08A407A11FD32FD42F1F
:101FA600C52F21082302031DDA2F20082202031C55
:101FB600DD2FDE2FE42F2008A2022108031CA30335
:101FC600A30201300310A10CA00CFF3E031DE52F58
:101FD6000130A402031DF02FF12FD42F2508031979
:101FE600F52FF62FFB2FA209A309A20A0319A30AAC
:0A1FF6002308A1002208A000080043
:02400E00FB3F76
:00000001FF
